{
  "contractName": "Finer",
  "abi": [
    {
      "inputs": [
        {
          "internalType": "contract IArbitrator",
          "name": "_arbitrator",
          "type": "address"
        }
      ],
      "payable": false,
      "stateMutability": "nonpayable",
      "type": "constructor"
    },
    {
      "anonymous": false,
      "inputs": [
        {
          "indexed": true,
          "internalType": "address",
          "name": "_challenger",
          "type": "address"
        },
        {
          "indexed": true,
          "internalType": "address",
          "name": "_voucher",
          "type": "address"
        },
        {
          "indexed": true,
          "internalType": "uint256",
          "name": "_disputeID",
          "type": "uint256"
        },
        {
          "indexed": false,
          "internalType": "uint256",
          "name": "_value",
          "type": "uint256"
        }
      ],
      "name": "FinePaid",
      "type": "event"
    },
    {
      "constant": true,
      "inputs": [],
      "name": "CHALLENGER_WON",
      "outputs": [
        {
          "internalType": "uint256",
          "name": "",
          "type": "uint256"
        }
      ],
      "payable": false,
      "stateMutability": "view",
      "type": "function"
    },
    {
      "constant": true,
      "inputs": [],
      "name": "arbitrator",
      "outputs": [
        {
          "internalType": "contract IArbitrator",
          "name": "",
          "type": "address"
        }
      ],
      "payable": false,
      "stateMutability": "view",
      "type": "function"
    },
    {
      "constant": false,
      "inputs": [
        {
          "internalType": "address payable",
          "name": "_challenger",
          "type": "address"
        },
        {
          "internalType": "uint256",
          "name": "_disputeID",
          "type": "uint256"
        }
      ],
      "name": "payFine",
      "outputs": [],
      "payable": true,
      "stateMutability": "payable",
      "type": "function"
    }
  ],
  "bytecode": "0x608060405234801561001057600080fd5b506040516103763803806103768339818101604052602081101561003357600080fd5b5051600080546001600160a01b039092166001600160a01b0319909216919091179055610311806100656000396000f3fe6080604052600436106100345760003560e01c80633d96d0191461003957806356e18f51146100605780636cc6cde11461008e575b600080fd5b34801561004557600080fd5b5061004e6100bf565b60408051918252519081900360200190f35b61008c6004803603604081101561007657600080fd5b506001600160a01b0381351690602001356100c4565b005b34801561009a57600080fd5b506100a36102cd565b604080516001600160a01b039092168252519081900360200190f35b600281565b6000546040805163021e2d3d60e31b81526004810184905290516002926001600160a01b0316916310f169e8916024808301926020929190829003018186803b15801561011057600080fd5b505afa158015610124573d6000803e3d6000fd5b505050506040513d602081101561013a57600080fd5b5051600281111561014757fe5b14610199576040805162461bcd60e51b815260206004820152601760248201527f44697370757465206973206e6f74206f76657220796574000000000000000000604482015290519081900360640190fd5b60005460408051631c3db16d60e01b81526004810184905290516002926001600160a01b031691631c3db16d916024808301926020929190829003018186803b1580156101e557600080fd5b505afa1580156101f9573d6000803e3d6000fd5b505050506040513d602081101561020f57600080fd5b505114610263576040805162461bcd60e51b815260206004820152601860248201527f4e6f2066696e6520666f72207468697320646973707574650000000000000000604482015290519081900360640190fd5b6040516001600160a01b038316903480156108fc02916000818181858888f150506040805134815290518594503393506001600160a01b03871692507f13d76cd377bb81680d4d06399ab565ea89e0c3962fb16e9e177bc89e97f31b939181900360200190a45050565b6000546001600160a01b03168156fea265627a7a72315820b225cc8d10dd8c3af78cfe5424a4a8454226b057c37649342cfcf6cea5d06a8d64736f6c63430005110032",
  "source": "/**\n *  @authors: [@unknownunknown1]\n *  @reviewers: [@mtsalenc*, @nix1g*, @hbarcelos*, @ferittuncer]\n *  @auditors: []\n *  @bounties: []\n *  @deployments: []\n */\n\npragma solidity ^0.5.17;\n\nimport \"@kleros/erc-792/contracts/IArbitrator.sol\";\n\n/**\n *  @title Finer\n *  The contract that allows to pay the fines for vouching for bad submissions in the ProofOfHumanity smart contract.\n *  The fines should be paid to the challenger that exposed the bad submission of a particular request.\n *  Note that the paid addresses and related amounts are not stored because the fine is not tied to the blockchain addresses but to the actual people.\n *  The fact of funding as well as the required amount will be established and recorded off-chain.\n */\ncontract Finer {\n\n    uint public constant CHALLENGER_WON = 2;\n    IArbitrator public arbitrator; // The arbitrator contract.\n\n    /**\n     *  @dev Emitted when a fine is paid.\n     *  @param _challenger The address of the challenger to pay the fines to.\n     *  @param _voucher The address of the penalized voucher that pays the fine.\n     *  @param _disputeID The ID of the related dispute that was ruled in favor of the challenger.\n     *  @param _value The amount paid.\n     */\n    event FinePaid(address indexed _challenger, address indexed _voucher, uint indexed _disputeID, uint _value);\n\n    constructor(IArbitrator _arbitrator) public {\n        arbitrator = _arbitrator;\n    }\n\n    /** @dev Pays the fine and sends it to a particular address. Emits an event.\n     *  @param _challenger The address to pay the fine to.\n     *  @param _disputeID ID of the dispute in the arbitrator contract that the challenger won.\n     */\n    function payFine(address payable _challenger, uint _disputeID) external payable {\n        require(arbitrator.disputeStatus(_disputeID) == IArbitrator.DisputeStatus.Solved, \"Dispute is not over yet\");\n        require(arbitrator.currentRuling(_disputeID) == CHALLENGER_WON, \"No fine for this dispute\");\n        _challenger.send(msg.value); // Deliberate use of 'send' to avoid blocking the call.\n        emit FinePaid(_challenger, msg.sender, _disputeID, msg.value);\n    }\n}\n",
  "sourcePath": "C:/Projects/TWITTER/cloned/Proof-Of-Humanity/contracts/Finer.sol",
  "compiler": {
    "name": "solc",
    "version": "0.5.17+commit.d19bba13.Emscripten.clang"
  },
  "schemaVersion": "3.3.3",
  "updatedAt": "2021-05-18T04:18:35.327Z",
  "devdoc": {
    "methods": {
      "payFine(address,uint256)": {
        "details": "Pays the fine and sends it to a particular address. Emits an event.",
        "params": {
          "_challenger": "The address to pay the fine to.",
          "_disputeID": "ID of the dispute in the arbitrator contract that the challenger won."
        }
      }
    },
    "title": "Finer The contract that allows to pay the fines for vouching for bad submissions in the ProofOfHumanity smart contract. The fines should be paid to the challenger that exposed the bad submission of a particular request. Note that the paid addresses and related amounts are not stored because the fine is not tied to the blockchain addresses but to the actual people. The fact of funding as well as the required amount will be established and recorded off-chain."
  },
  "userdoc": {
    "methods": {}
  }
}